{
  "contractName": "Comments",
  "abi": [
    {
      "inputs": [
        {
          "internalType": "uint256",
          "name": "",
          "type": "uint256"
        },
        {
          "internalType": "uint256",
          "name": "",
          "type": "uint256"
        }
      ],
      "name": "comments",
      "outputs": [
        {
          "internalType": "string",
          "name": "text",
          "type": "string"
        },
        {
          "internalType": "address",
          "name": "author",
          "type": "address"
        }
      ],
      "stateMutability": "view",
      "type": "function"
    },
    {
      "inputs": [
        {
          "internalType": "uint256",
          "name": "_postId",
          "type": "uint256"
        },
        {
          "internalType": "string",
          "name": "_text",
          "type": "string"
        }
      ],
      "name": "addComment",
      "outputs": [],
      "stateMutability": "nonpayable",
      "type": "function"
    },
    {
      "inputs": [
        {
          "internalType": "uint256",
          "name": "_postId",
          "type": "uint256"
        },
        {
          "internalType": "uint256",
          "name": "_index",
          "type": "uint256"
        }
      ],
      "name": "getComment",
      "outputs": [
        {
          "internalType": "string",
          "name": "",
          "type": "string"
        },
        {
          "internalType": "address",
          "name": "",
          "type": "address"
        }
      ],
      "stateMutability": "view",
      "type": "function"
    },
    {
      "inputs": [
        {
          "internalType": "uint256",
          "name": "_postId",
          "type": "uint256"
        }
      ],
      "name": "getCommentsCount",
      "outputs": [
        {
          "internalType": "uint256",
          "name": "",
          "type": "uint256"
        }
      ],
      "stateMutability": "view",
      "type": "function"
    }
  ],
  "bytecode": "0x608060405234801561000f575f80fd5b50610a6d8061001d5f395ff3fe608060405234801561000f575f80fd5b506004361061004a575f3560e01c8063488927531461004e5780634c9b78da1461007f578063aa7e5683146100af578063fc6c776f146100cb575b5f80fd5b61006860048036038101906100639190610433565b6100fc565b60405161007692919061053a565b60405180910390f35b61009960048036038101906100949190610568565b610234565b6040516100a691906105a2565b60405180910390f35b6100c960048036038101906100c491906106e7565b610250565b005b6100e560048036038101906100e09190610433565b610311565b6040516100f392919061053a565b60405180910390f35b60605f805f808681526020019081526020015f20848154811061012257610121610741565b5b905f5260205f2090600202016040518060400160405290815f820180546101489061079b565b80601f01602080910402602001604051908101604052809291908181526020018280546101749061079b565b80156101bf5780601f10610196576101008083540402835291602001916101bf565b820191905f5260205f20905b8154815290600101906020018083116101a257829003601f168201915b50505050508152602001600182015f9054906101000a900473ffffffffffffffffffffffffffffffffffffffff1673ffffffffffffffffffffffffffffffffffffffff1673ffffffffffffffffffffffffffffffffffffffff16815250509050805f0151816020015192509250509250929050565b5f805f8381526020019081526020015f20805490509050919050565b5f808381526020019081526020015f2060405180604001604052808381526020013373ffffffffffffffffffffffffffffffffffffffff16815250908060018154018082558091505060019003905f5260205f2090600202015f909190919091505f820151815f0190816102c49190610968565b506020820151816001015f6101000a81548173ffffffffffffffffffffffffffffffffffffffff021916908373ffffffffffffffffffffffffffffffffffffffff16021790555050505050565b5f602052815f5260405f208181548110610329575f80fd5b905f5260205f2090600202015f9150915050805f0180546103499061079b565b80601f01602080910402602001604051908101604052809291908181526020018280546103759061079b565b80156103c05780601f10610397576101008083540402835291602001916103c0565b820191905f5260205f20905b8154815290600101906020018083116103a357829003601f168201915b505050505090806001015f9054906101000a900473ffffffffffffffffffffffffffffffffffffffff16905082565b5f604051905090565b5f80fd5b5f80fd5b5f819050919050565b61041281610400565b811461041c575f80fd5b50565b5f8135905061042d81610409565b92915050565b5f8060408385031215610449576104486103f8565b5b5f6104568582860161041f565b92505060206104678582860161041f565b9150509250929050565b5f81519050919050565b5f82825260208201905092915050565b5f5b838110156104a857808201518184015260208101905061048d565b5f8484015250505050565b5f601f19601f8301169050919050565b5f6104cd82610471565b6104d7818561047b565b93506104e781856020860161048b565b6104f0816104b3565b840191505092915050565b5f73ffffffffffffffffffffffffffffffffffffffff82169050919050565b5f610524826104fb565b9050919050565b6105348161051a565b82525050565b5f6040820190508181035f83015261055281856104c3565b9050610561602083018461052b565b9392505050565b5f6020828403121561057d5761057c6103f8565b5b5f61058a8482850161041f565b91505092915050565b61059c81610400565b82525050565b5f6020820190506105b55f830184610593565b92915050565b5f80fd5b5f80fd5b7f4e487b71000000000000000000000000000000000000000000000000000000005f52604160045260245ffd5b6105f9826104b3565b810181811067ffffffffffffffff82111715610618576106176105c3565b5b80604052505050565b5f61062a6103ef565b905061063682826105f0565b919050565b5f67ffffffffffffffff821115610655576106546105c3565b5b61065e826104b3565b9050602081019050919050565b828183375f83830152505050565b5f61068b6106868461063b565b610621565b9050828152602081018484840111156106a7576106a66105bf565b5b6106b284828561066b565b509392505050565b5f82601f8301126106ce576106cd6105bb565b5b81356106de848260208601610679565b91505092915050565b5f80604083850312156106fd576106fc6103f8565b5b5f61070a8582860161041f565b925050602083013567ffffffffffffffff81111561072b5761072a6103fc565b5b610737858286016106ba565b9150509250929050565b7f4e487b71000000000000000000000000000000000000000000000000000000005f52603260045260245ffd5b7f4e487b71000000000000000000000000000000000000000000000000000000005f52602260045260245ffd5b5f60028204905060018216806107b257607f821691505b6020821081036107c5576107c461076e565b5b50919050565b5f819050815f5260205f209050919050565b5f6020601f8301049050919050565b5f82821b905092915050565b5f600883026108277fffffffffffffffffffffffffffffffffffffffffffffffffffffffffffffffff826107ec565b61083186836107ec565b95508019841693508086168417925050509392505050565b5f819050919050565b5f61086c61086761086284610400565b610849565b610400565b9050919050565b5f819050919050565b61088583610852565b61089961089182610873565b8484546107f8565b825550505050565b5f90565b6108ad6108a1565b6108b881848461087c565b505050565b5b818110156108db576108d05f826108a5565b6001810190506108be565b5050565b601f821115610920576108f1816107cb565b6108fa846107dd565b81016020851015610909578190505b61091d610915856107dd565b8301826108bd565b50505b505050565b5f82821c905092915050565b5f6109405f1984600802610925565b1980831691505092915050565b5f6109588383610931565b9150826002028217905092915050565b61097182610471565b67ffffffffffffffff81111561098a576109896105c3565b5b610994825461079b565b61099f8282856108df565b5f60209050601f8311600181146109d0575f84156109be578287015190505b6109c8858261094d565b865550610a2f565b601f1984166109de866107cb565b5f5b82811015610a05578489015182556001820191506020850194506020810190506109e0565b86831015610a225784890151610a1e601f891682610931565b8355505b6001600288020188555050505b50505050505056fea2646970667358221220e3db35894257982a68e11507715546df0f1dca8819a3479bad4602ebb96c6da464736f6c63430008150033",
  "immutableReferences": {},
  "source": "// SPDX-License-Identifier: MIT\npragma solidity >=0.4.22 <0.9.0;\n\ncontract Comments {\n  struct Comment {\n    string text;\n    address author;\n  }\n\n  // Mapping from post ID to comments\n  mapping(uint => Comment[]) public comments;\n\n  function addComment(uint _postId, string memory _text) public {\n    comments[_postId].push(Comment(_text, msg.sender));\n  }\n\n  function getComment(uint _postId, uint _index) public view returns (string memory, address) {\n    Comment memory comment = comments[_postId][_index];\n    return (comment.text, comment.author);\n  }\n\n  function getCommentsCount(uint _postId) public view returns (uint) {\n    return comments[_postId].length;\n  }\n}\n",
  "sourcePath": "/Users/jansvensson/Develop/Web/portfolio-cms/portfolio-comment-section/contracts/Comments.sol",
  "compiler": {
    "name": "solc",
    "version": "0.8.21+commit.d9974bed.Emscripten.clang"
  },
  "schemaVersion": "3.4.16",
  "updatedAt": "2024-06-09T07:49:11.361Z",
  "devdoc": {
    "kind": "dev",
    "methods": {},
    "version": 1
  },
  "userdoc": {
    "kind": "user",
    "methods": {},
    "version": 1
  }
}