{
  "contractName": "Comments",
  "abi": [
    {
      "inputs": [
        {
          "internalType": "uint256",
          "name": "",
          "type": "uint256"
        },
        {
          "internalType": "uint256",
          "name": "",
          "type": "uint256"
        }
      ],
      "name": "comments",
      "outputs": [
        {
          "internalType": "string",
          "name": "text",
          "type": "string"
        },
        {
          "internalType": "address",
          "name": "author",
          "type": "address"
        }
      ],
      "stateMutability": "view",
      "type": "function",
      "constant": true
    },
    {
      "inputs": [
        {
          "internalType": "uint256",
          "name": "_postId",
          "type": "uint256"
        },
        {
          "internalType": "string",
          "name": "_text",
          "type": "string"
        }
      ],
      "name": "addComment",
      "outputs": [],
      "stateMutability": "nonpayable",
      "type": "function"
    },
    {
      "inputs": [
        {
          "internalType": "uint256",
          "name": "_postId",
          "type": "uint256"
        },
        {
          "internalType": "uint256",
          "name": "_index",
          "type": "uint256"
        }
      ],
      "name": "getComment",
      "outputs": [
        {
          "internalType": "string",
          "name": "",
          "type": "string"
        },
        {
          "internalType": "address",
          "name": "",
          "type": "address"
        }
      ],
      "stateMutability": "view",
      "type": "function",
      "constant": true
    },
    {
      "inputs": [
        {
          "internalType": "uint256",
          "name": "_postId",
          "type": "uint256"
        }
      ],
      "name": "getAllComments",
      "outputs": [
        {
          "internalType": "string[]",
          "name": "",
          "type": "string[]"
        },
        {
          "internalType": "address[]",
          "name": "",
          "type": "address[]"
        }
      ],
      "stateMutability": "view",
      "type": "function",
      "constant": true
    },
    {
      "inputs": [
        {
          "internalType": "uint256",
          "name": "_postId",
          "type": "uint256"
        }
      ],
      "name": "getCommentsCount",
      "outputs": [
        {
          "internalType": "uint256",
          "name": "",
          "type": "uint256"
        }
      ],
      "stateMutability": "view",
      "type": "function",
      "constant": true
    }
  ],
  "bytecode": "0x608060405234801561001057600080fd5b5061104b806100206000396000f3fe608060405234801561001057600080fd5b50600436106100575760003560e01c806303926df91461005c578063488927531461008d5780634c9b78da146100be578063aa7e5683146100ee578063fc6c776f1461010a575b600080fd5b61007660048036038101906100719190610767565b61013b565b6040516100849291906109d6565b60405180910390f35b6100a760048036038101906100a29190610a0d565b61040a565b6040516100b5929190610aa6565b60405180910390f35b6100d860048036038101906100d39190610767565b61054c565b6040516100e59190610ae5565b60405180910390f35b61010860048036038101906101039190610c35565b61056b565b005b610124600480360381019061011f9190610a0d565b610634565b604051610132929190610aa6565b60405180910390f35b6060806000806000858152602001908152602001600020805480602002602001604051908101604052809291908181526020016000905b8282101561028c57838290600052602060002090600202016040518060400160405290816000820180546101a590610cc0565b80601f01602080910402602001604051908101604052809291908181526020018280546101d190610cc0565b801561021e5780601f106101f35761010080835404028352916020019161021e565b820191906000526020600020905b81548152906001019060200180831161020157829003601f168201915b505050505081526020016001820160009054906101000a900473ffffffffffffffffffffffffffffffffffffffff1673ffffffffffffffffffffffffffffffffffffffff1673ffffffffffffffffffffffffffffffffffffffff168152505081526020019060010190610172565b5050505090506000815167ffffffffffffffff8111156102af576102ae610b0a565b5b6040519080825280602002602001820160405280156102e257816020015b60608152602001906001900390816102cd5790505b5090506000825167ffffffffffffffff81111561030257610301610b0a565b5b6040519080825280602002602001820160405280156103305781602001602082028036833780820191505090505b50905060005b83518110156103fb5783818151811061035257610351610cf1565b5b60200260200101516000015183828151811061037157610370610cf1565b5b602002602001018190525083818151811061038f5761038e610cf1565b5b6020026020010151602001518282815181106103ae576103ad610cf1565b5b602002602001019073ffffffffffffffffffffffffffffffffffffffff16908173ffffffffffffffffffffffffffffffffffffffff168152505080806103f390610d4f565b915050610336565b50818194509450505050915091565b6060600080600080868152602001908152602001600020848154811061043357610432610cf1565b5b906000526020600020906002020160405180604001604052908160008201805461045c90610cc0565b80601f016020809104026020016040519081016040528092919081815260200182805461048890610cc0565b80156104d55780601f106104aa576101008083540402835291602001916104d5565b820191906000526020600020905b8154815290600101906020018083116104b857829003601f168201915b505050505081526020016001820160009054906101000a900473ffffffffffffffffffffffffffffffffffffffff1673ffffffffffffffffffffffffffffffffffffffff1673ffffffffffffffffffffffffffffffffffffffff168152505090508060000151816020015192509250509250929050565b6000806000838152602001908152602001600020805490509050919050565b60008083815260200190815260200160002060405180604001604052808381526020013373ffffffffffffffffffffffffffffffffffffffff16815250908060018154018082558091505060019003906000526020600020906002020160009091909190915060008201518160000190816105e69190610f43565b5060208201518160010160006101000a81548173ffffffffffffffffffffffffffffffffffffffff021916908373ffffffffffffffffffffffffffffffffffffffff16021790555050505050565b6000602052816000526040600020818154811061065057600080fd5b90600052602060002090600202016000915091505080600001805461067490610cc0565b80601f01602080910402602001604051908101604052809291908181526020018280546106a090610cc0565b80156106ed5780601f106106c2576101008083540402835291602001916106ed565b820191906000526020600020905b8154815290600101906020018083116106d057829003601f168201915b5050505050908060010160009054906101000a900473ffffffffffffffffffffffffffffffffffffffff16905082565b6000604051905090565b600080fd5b600080fd5b6000819050919050565b61074481610731565b811461074f57600080fd5b50565b6000813590506107618161073b565b92915050565b60006020828403121561077d5761077c610727565b5b600061078b84828501610752565b91505092915050565b600081519050919050565b600082825260208201905092915050565b6000819050602082019050919050565b600081519050919050565b600082825260208201905092915050565b60005b838110156107fa5780820151818401526020810190506107df565b60008484015250505050565b6000601f19601f8301169050919050565b6000610822826107c0565b61082c81856107cb565b935061083c8185602086016107dc565b61084581610806565b840191505092915050565b600061085c8383610817565b905092915050565b6000602082019050919050565b600061087c82610794565b610886818561079f565b935083602082028501610898856107b0565b8060005b858110156108d457848403895281516108b58582610850565b94506108c083610864565b925060208a0199505060018101905061089c565b50829750879550505050505092915050565b600081519050919050565b600082825260208201905092915050565b6000819050602082019050919050565b600073ffffffffffffffffffffffffffffffffffffffff82169050919050565b600061093d82610912565b9050919050565b61094d81610932565b82525050565b600061095f8383610944565b60208301905092915050565b6000602082019050919050565b6000610983826108e6565b61098d81856108f1565b935061099883610902565b8060005b838110156109c95781516109b08882610953565b97506109bb8361096b565b92505060018101905061099c565b5085935050505092915050565b600060408201905081810360008301526109f08185610871565b90508181036020830152610a048184610978565b90509392505050565b60008060408385031215610a2457610a23610727565b5b6000610a3285828601610752565b9250506020610a4385828601610752565b9150509250929050565b600082825260208201905092915050565b6000610a69826107c0565b610a738185610a4d565b9350610a838185602086016107dc565b610a8c81610806565b840191505092915050565b610aa081610932565b82525050565b60006040820190508181036000830152610ac08185610a5e565b9050610acf6020830184610a97565b9392505050565b610adf81610731565b82525050565b6000602082019050610afa6000830184610ad6565b92915050565b600080fd5b600080fd5b7f4e487b7100000000000000000000000000000000000000000000000000000000600052604160045260246000fd5b610b4282610806565b810181811067ffffffffffffffff82111715610b6157610b60610b0a565b5b80604052505050565b6000610b7461071d565b9050610b808282610b39565b919050565b600067ffffffffffffffff821115610ba057610b9f610b0a565b5b610ba982610806565b9050602081019050919050565b82818337600083830152505050565b6000610bd8610bd384610b85565b610b6a565b905082815260208101848484011115610bf457610bf3610b05565b5b610bff848285610bb6565b509392505050565b600082601f830112610c1c57610c1b610b00565b5b8135610c2c848260208601610bc5565b91505092915050565b60008060408385031215610c4c57610c4b610727565b5b6000610c5a85828601610752565b925050602083013567ffffffffffffffff811115610c7b57610c7a61072c565b5b610c8785828601610c07565b9150509250929050565b7f4e487b7100000000000000000000000000000000000000000000000000000000600052602260045260246000fd5b60006002820490506001821680610cd857607f821691505b602082108103610ceb57610cea610c91565b5b50919050565b7f4e487b7100000000000000000000000000000000000000000000000000000000600052603260045260246000fd5b7f4e487b7100000000000000000000000000000000000000000000000000000000600052601160045260246000fd5b6000610d5a82610731565b91507fffffffffffffffffffffffffffffffffffffffffffffffffffffffffffffffff8203610d8c57610d8b610d20565b5b600182019050919050565b60008190508160005260206000209050919050565b60006020601f8301049050919050565b600082821b905092915050565b600060088302610df97fffffffffffffffffffffffffffffffffffffffffffffffffffffffffffffffff82610dbc565b610e038683610dbc565b95508019841693508086168417925050509392505050565b6000819050919050565b6000610e40610e3b610e3684610731565b610e1b565b610731565b9050919050565b6000819050919050565b610e5a83610e25565b610e6e610e6682610e47565b848454610dc9565b825550505050565b600090565b610e83610e76565b610e8e818484610e51565b505050565b5b81811015610eb257610ea7600082610e7b565b600181019050610e94565b5050565b601f821115610ef757610ec881610d97565b610ed184610dac565b81016020851015610ee0578190505b610ef4610eec85610dac565b830182610e93565b50505b505050565b600082821c905092915050565b6000610f1a60001984600802610efc565b1980831691505092915050565b6000610f338383610f09565b9150826002028217905092915050565b610f4c826107c0565b67ffffffffffffffff811115610f6557610f64610b0a565b5b610f6f8254610cc0565b610f7a828285610eb6565b600060209050601f831160018114610fad5760008415610f9b578287015190505b610fa58582610f27565b86555061100d565b601f198416610fbb86610d97565b60005b82811015610fe357848901518255600182019150602085019450602081019050610fbe565b868310156110005784890151610ffc601f891682610f09565b8355505b6001600288020188555050505b50505050505056fea26469706673582212205220618eab5409d217bec84650d99ae0c2c4f3858a504131d92b6538720051c864736f6c63430008130033",
  "immutableReferences": {},
  "source": "// SPDX-License-Identifier: MIT\npragma solidity 0.8.19;\n\ncontract Comments {\n  struct Comment {\n    string text;\n    address author;\n  }\n\n  // Mapping from post ID to comments\n  mapping(uint => Comment[]) public comments;\n\n  function addComment(uint _postId, string memory _text) public {\n    comments[_postId].push(Comment(_text, msg.sender));\n  }\n\n  function getComment(uint _postId, uint _index) public view returns (string memory, address) {\n    Comment memory comment = comments[_postId][_index];\n    return (comment.text, comment.author);\n  }\n\n  function getAllComments(uint _postId) public view returns (string[] memory, address[] memory) {\n    Comment[] memory postComments = comments[_postId];\n    string[] memory texts = new string[](postComments.length);\n    address[] memory authors = new address[](postComments.length);\n\n    for (uint i = 0; i < postComments.length; i++) {\n      texts[i] = postComments[i].text;\n      authors[i] = postComments[i].author;\n    }\n\n    return (texts, authors);\n  }\n\n  function getCommentsCount(uint _postId) public view returns (uint) {\n    return comments[_postId].length;\n  }\n}\n",
  "sourcePath": "/Users/jansvensson/Develop/Web/portfolio-cms/portfolio-comment-section/contracts/Comments.sol",
  "compiler": {
    "name": "solc",
    "version": "0.8.19+commit.7dd6d404.Emscripten.clang"
  },
  "schemaVersion": "3.4.16",
  "updatedAt": "2024-07-03T09:48:04.602Z",
  "networkType": "ethereum",
  "devdoc": {
    "kind": "dev",
    "methods": {},
    "version": 1
  },
  "userdoc": {
    "kind": "user",
    "methods": {},
    "version": 1
  }
}