{
  "contractName": "Comments",
  "abi": [
    {
      "inputs": [
        {
          "internalType": "uint256",
          "name": "",
          "type": "uint256"
        },
        {
          "internalType": "uint256",
          "name": "",
          "type": "uint256"
        }
      ],
      "name": "comments",
      "outputs": [
        {
          "internalType": "string",
          "name": "text",
          "type": "string"
        },
        {
          "internalType": "address",
          "name": "author",
          "type": "address"
        }
      ],
      "stateMutability": "view",
      "type": "function",
      "constant": true
    },
    {
      "inputs": [
        {
          "internalType": "uint256",
          "name": "_postId",
          "type": "uint256"
        },
        {
          "internalType": "string",
          "name": "_text",
          "type": "string"
        }
      ],
      "name": "addComment",
      "outputs": [],
      "stateMutability": "nonpayable",
      "type": "function"
    },
    {
      "inputs": [
        {
          "internalType": "uint256",
          "name": "_postId",
          "type": "uint256"
        },
        {
          "internalType": "uint256",
          "name": "_index",
          "type": "uint256"
        }
      ],
      "name": "getComment",
      "outputs": [
        {
          "internalType": "string",
          "name": "",
          "type": "string"
        },
        {
          "internalType": "address",
          "name": "",
          "type": "address"
        }
      ],
      "stateMutability": "view",
      "type": "function",
      "constant": true
    },
    {
      "inputs": [
        {
          "internalType": "uint256",
          "name": "_postId",
          "type": "uint256"
        }
      ],
      "name": "getAllComments",
      "outputs": [
        {
          "internalType": "string[]",
          "name": "",
          "type": "string[]"
        },
        {
          "internalType": "address[]",
          "name": "",
          "type": "address[]"
        }
      ],
      "stateMutability": "view",
      "type": "function",
      "constant": true
    },
    {
      "inputs": [
        {
          "internalType": "uint256",
          "name": "_postId",
          "type": "uint256"
        }
      ],
      "name": "getCommentsCount",
      "outputs": [
        {
          "internalType": "uint256",
          "name": "",
          "type": "uint256"
        }
      ],
      "stateMutability": "view",
      "type": "function",
      "constant": true
    }
  ],
  "bytecode": "0x608060405234801561000f575f80fd5b50610fcd8061001d5f395ff3fe608060405234801561000f575f80fd5b5060043610610055575f3560e01c806303926df914610059578063488927531461008a5780634c9b78da146100bb578063aa7e5683146100eb578063fc6c776f14610107575b5f80fd5b610073600480360381019061006e9190610730565b610138565b604051610081929190610987565b60405180910390f35b6100a4600480360381019061009f91906109bc565b6103f9565b6040516100b2929190610a51565b60405180910390f35b6100d560048036038101906100d09190610730565b610531565b6040516100e29190610a8e565b60405180910390f35b61010560048036038101906101009190610bd3565b61054d565b005b610121600480360381019061011c91906109bc565b61060e565b60405161012f929190610a51565b60405180910390f35b6060805f805f8581526020019081526020015f20805480602002602001604051908101604052809291908181526020015f905b8282101561027f578382905f5260205f2090600202016040518060400160405290815f8201805461019b90610c5a565b80601f01602080910402602001604051908101604052809291908181526020018280546101c790610c5a565b80156102125780601f106101e957610100808354040283529160200191610212565b820191905f5260205f20905b8154815290600101906020018083116101f557829003601f168201915b50505050508152602001600182015f9054906101000a900473ffffffffffffffffffffffffffffffffffffffff1673ffffffffffffffffffffffffffffffffffffffff1673ffffffffffffffffffffffffffffffffffffffff16815250508152602001906001019061016b565b5050505090505f815167ffffffffffffffff8111156102a1576102a0610aaf565b5b6040519080825280602002602001820160405280156102d457816020015b60608152602001906001900390816102bf5790505b5090505f825167ffffffffffffffff8111156102f3576102f2610aaf565b5b6040519080825280602002602001820160405280156103215781602001602082028036833780820191505090505b5090505f5b83518110156103ea5783818151811061034257610341610c8a565b5b60200260200101515f01518382815181106103605761035f610c8a565b5b602002602001018190525083818151811061037e5761037d610c8a565b5b60200260200101516020015182828151811061039d5761039c610c8a565b5b602002602001019073ffffffffffffffffffffffffffffffffffffffff16908173ffffffffffffffffffffffffffffffffffffffff168152505080806103e290610ce4565b915050610326565b50818194509450505050915091565b60605f805f808681526020019081526020015f20848154811061041f5761041e610c8a565b5b905f5260205f2090600202016040518060400160405290815f8201805461044590610c5a565b80601f016020809104026020016040519081016040528092919081815260200182805461047190610c5a565b80156104bc5780601f10610493576101008083540402835291602001916104bc565b820191905f5260205f20905b81548152906001019060200180831161049f57829003601f168201915b50505050508152602001600182015f9054906101000a900473ffffffffffffffffffffffffffffffffffffffff1673ffffffffffffffffffffffffffffffffffffffff1673ffffffffffffffffffffffffffffffffffffffff16815250509050805f0151816020015192509250509250929050565b5f805f8381526020019081526020015f20805490509050919050565b5f808381526020019081526020015f2060405180604001604052808381526020013373ffffffffffffffffffffffffffffffffffffffff16815250908060018154018082558091505060019003905f5260205f2090600202015f909190919091505f820151815f0190816105c19190610ec8565b506020820151816001015f6101000a81548173ffffffffffffffffffffffffffffffffffffffff021916908373ffffffffffffffffffffffffffffffffffffffff16021790555050505050565b5f602052815f5260405f208181548110610626575f80fd5b905f5260205f2090600202015f9150915050805f01805461064690610c5a565b80601f016020809104026020016040519081016040528092919081815260200182805461067290610c5a565b80156106bd5780601f10610694576101008083540402835291602001916106bd565b820191905f5260205f20905b8154815290600101906020018083116106a057829003601f168201915b505050505090806001015f9054906101000a900473ffffffffffffffffffffffffffffffffffffffff16905082565b5f604051905090565b5f80fd5b5f80fd5b5f819050919050565b61070f816106fd565b8114610719575f80fd5b50565b5f8135905061072a81610706565b92915050565b5f60208284031215610745576107446106f5565b5b5f6107528482850161071c565b91505092915050565b5f81519050919050565b5f82825260208201905092915050565b5f819050602082019050919050565b5f81519050919050565b5f82825260208201905092915050565b5f5b838110156107bb5780820151818401526020810190506107a0565b5f8484015250505050565b5f601f19601f8301169050919050565b5f6107e082610784565b6107ea818561078e565b93506107fa81856020860161079e565b610803816107c6565b840191505092915050565b5f61081983836107d6565b905092915050565b5f602082019050919050565b5f6108378261075b565b6108418185610765565b93508360208202850161085385610775565b805f5b8581101561088e578484038952815161086f858261080e565b945061087a83610821565b925060208a01995050600181019050610856565b50829750879550505050505092915050565b5f81519050919050565b5f82825260208201905092915050565b5f819050602082019050919050565b5f73ffffffffffffffffffffffffffffffffffffffff82169050919050565b5f6108f2826108c9565b9050919050565b610902816108e8565b82525050565b5f61091383836108f9565b60208301905092915050565b5f602082019050919050565b5f610935826108a0565b61093f81856108aa565b935061094a836108ba565b805f5b8381101561097a5781516109618882610908565b975061096c8361091f565b92505060018101905061094d565b5085935050505092915050565b5f6040820190508181035f83015261099f818561082d565b905081810360208301526109b3818461092b565b90509392505050565b5f80604083850312156109d2576109d16106f5565b5b5f6109df8582860161071c565b92505060206109f08582860161071c565b9150509250929050565b5f82825260208201905092915050565b5f610a1482610784565b610a1e81856109fa565b9350610a2e81856020860161079e565b610a37816107c6565b840191505092915050565b610a4b816108e8565b82525050565b5f6040820190508181035f830152610a698185610a0a565b9050610a786020830184610a42565b9392505050565b610a88816106fd565b82525050565b5f602082019050610aa15f830184610a7f565b92915050565b5f80fd5b5f80fd5b7f4e487b71000000000000000000000000000000000000000000000000000000005f52604160045260245ffd5b610ae5826107c6565b810181811067ffffffffffffffff82111715610b0457610b03610aaf565b5b80604052505050565b5f610b166106ec565b9050610b228282610adc565b919050565b5f67ffffffffffffffff821115610b4157610b40610aaf565b5b610b4a826107c6565b9050602081019050919050565b828183375f83830152505050565b5f610b77610b7284610b27565b610b0d565b905082815260208101848484011115610b9357610b92610aab565b5b610b9e848285610b57565b509392505050565b5f82601f830112610bba57610bb9610aa7565b5b8135610bca848260208601610b65565b91505092915050565b5f8060408385031215610be957610be86106f5565b5b5f610bf68582860161071c565b925050602083013567ffffffffffffffff811115610c1757610c166106f9565b5b610c2385828601610ba6565b9150509250929050565b7f4e487b71000000000000000000000000000000000000000000000000000000005f52602260045260245ffd5b5f6002820490506001821680610c7157607f821691505b602082108103610c8457610c83610c2d565b5b50919050565b7f4e487b71000000000000000000000000000000000000000000000000000000005f52603260045260245ffd5b7f4e487b71000000000000000000000000000000000000000000000000000000005f52601160045260245ffd5b5f610cee826106fd565b91507fffffffffffffffffffffffffffffffffffffffffffffffffffffffffffffffff8203610d2057610d1f610cb7565b5b600182019050919050565b5f819050815f5260205f209050919050565b5f6020601f8301049050919050565b5f82821b905092915050565b5f60088302610d877fffffffffffffffffffffffffffffffffffffffffffffffffffffffffffffffff82610d4c565b610d918683610d4c565b95508019841693508086168417925050509392505050565b5f819050919050565b5f610dcc610dc7610dc2846106fd565b610da9565b6106fd565b9050919050565b5f819050919050565b610de583610db2565b610df9610df182610dd3565b848454610d58565b825550505050565b5f90565b610e0d610e01565b610e18818484610ddc565b505050565b5b81811015610e3b57610e305f82610e05565b600181019050610e1e565b5050565b601f821115610e8057610e5181610d2b565b610e5a84610d3d565b81016020851015610e69578190505b610e7d610e7585610d3d565b830182610e1d565b50505b505050565b5f82821c905092915050565b5f610ea05f1984600802610e85565b1980831691505092915050565b5f610eb88383610e91565b9150826002028217905092915050565b610ed182610784565b67ffffffffffffffff811115610eea57610ee9610aaf565b5b610ef48254610c5a565b610eff828285610e3f565b5f60209050601f831160018114610f30575f8415610f1e578287015190505b610f288582610ead565b865550610f8f565b601f198416610f3e86610d2b565b5f5b82811015610f6557848901518255600182019150602085019450602081019050610f40565b86831015610f825784890151610f7e601f891682610e91565b8355505b6001600288020188555050505b50505050505056fea2646970667358221220c4a6a5782a0e87acec1de3491439120d01099833c83b78b141b05a7f1f4162e564736f6c63430008150033",
  "immutableReferences": {},
  "source": "// SPDX-License-Identifier: MIT\npragma solidity >=0.4.22 <0.9.0;\n\ncontract Comments {\n  struct Comment {\n    string text;\n    address author;\n  }\n\n  // Mapping from post ID to comments\n  mapping(uint => Comment[]) public comments;\n\n  function addComment(uint _postId, string memory _text) public {\n    comments[_postId].push(Comment(_text, msg.sender));\n  }\n\n  function getComment(uint _postId, uint _index) public view returns (string memory, address) {\n    Comment memory comment = comments[_postId][_index];\n    return (comment.text, comment.author);\n  }\n\n  function getAllComments(uint _postId) public view returns (string[] memory, address[] memory) {\n    Comment[] memory postComments = comments[_postId];\n    string[] memory texts = new string[](postComments.length);\n    address[] memory authors = new address[](postComments.length);\n\n    for (uint i = 0; i < postComments.length; i++) {\n      texts[i] = postComments[i].text;\n      authors[i] = postComments[i].author;\n    }\n\n    return (texts, authors);\n  }\n\n  function getCommentsCount(uint _postId) public view returns (uint) {\n    return comments[_postId].length;\n  }\n}\n",
  "sourcePath": "/Users/jansvensson/Develop/Web/portfolio-cms/portfolio-comment-section/contracts/Comments.sol",
  "compiler": {
    "name": "solc",
    "version": "0.8.21+commit.d9974bed.Emscripten.clang"
  },
  "schemaVersion": "3.4.16",
  "updatedAt": "2024-06-20T16:15:12.510Z",
  "networkType": "ethereum",
  "devdoc": {
    "kind": "dev",
    "methods": {},
    "version": 1
  },
  "userdoc": {
    "kind": "user",
    "methods": {},
    "version": 1
  }
}