{
  "contractName": "Comments",
  "abi": [
    {
      "inputs": [
        {
          "internalType": "uint256",
          "name": "",
          "type": "uint256"
        }
      ],
      "name": "comments",
      "outputs": [
        {
          "internalType": "string",
          "name": "text",
          "type": "string"
        },
        {
          "internalType": "address",
          "name": "author",
          "type": "address"
        }
      ],
      "stateMutability": "view",
      "type": "function",
      "constant": true
    },
    {
      "inputs": [
        {
          "internalType": "string",
          "name": "_text",
          "type": "string"
        }
      ],
      "name": "addComment",
      "outputs": [],
      "stateMutability": "nonpayable",
      "type": "function"
    },
    {
      "inputs": [
        {
          "internalType": "uint256",
          "name": "_index",
          "type": "uint256"
        }
      ],
      "name": "getComment",
      "outputs": [
        {
          "internalType": "string",
          "name": "",
          "type": "string"
        },
        {
          "internalType": "address",
          "name": "",
          "type": "address"
        }
      ],
      "stateMutability": "view",
      "type": "function",
      "constant": true
    },
    {
      "inputs": [],
      "name": "getCommentsCount",
      "outputs": [
        {
          "internalType": "uint256",
          "name": "",
          "type": "uint256"
        }
      ],
      "stateMutability": "view",
      "type": "function",
      "constant": true
    }
  ],
  "bytecode": "0x608060405234801561000f575f80fd5b506109cd8061001d5f395ff3fe608060405234801561000f575f80fd5b506004361061004a575f3560e01c80630800e3001461004e578063843b43861461007f5780638ebb4c151461009b578063c1c1066b146100cc575b5f80fd5b610068600480360381019061006391906103e4565b6100ea565b6040516100769291906104d8565b60405180910390f35b61009960048036038101906100949190610632565b610211565b005b6100b560048036038101906100b091906103e4565b6102c2565b6040516100c39291906104d8565b60405180910390f35b6100d4610395565b6040516100e19190610688565b60405180910390f35b60605f805f8481548110610101576101006106a1565b5b905f5260205f2090600202016040518060400160405290815f82018054610127906106fb565b80601f0160208091040260200160405190810160405280929190818152602001828054610153906106fb565b801561019e5780601f106101755761010080835404028352916020019161019e565b820191905f5260205f20905b81548152906001019060200180831161018157829003601f168201915b50505050508152602001600182015f9054906101000a900473ffffffffffffffffffffffffffffffffffffffff1673ffffffffffffffffffffffffffffffffffffffff1673ffffffffffffffffffffffffffffffffffffffff16815250509050805f015181602001519250925050915091565b5f60405180604001604052808381526020013373ffffffffffffffffffffffffffffffffffffffff16815250908060018154018082558091505060019003905f5260205f2090600202015f909190919091505f820151815f01908161027691906108c8565b506020820151816001015f6101000a81548173ffffffffffffffffffffffffffffffffffffffff021916908373ffffffffffffffffffffffffffffffffffffffff160217905550505050565b5f81815481106102d0575f80fd5b905f5260205f2090600202015f91509050805f0180546102ef906106fb565b80601f016020809104026020016040519081016040528092919081815260200182805461031b906106fb565b80156103665780601f1061033d57610100808354040283529160200191610366565b820191905f5260205f20905b81548152906001019060200180831161034957829003601f168201915b505050505090806001015f9054906101000a900473ffffffffffffffffffffffffffffffffffffffff16905082565b5f8080549050905090565b5f604051905090565b5f80fd5b5f80fd5b5f819050919050565b6103c3816103b1565b81146103cd575f80fd5b50565b5f813590506103de816103ba565b92915050565b5f602082840312156103f9576103f86103a9565b5b5f610406848285016103d0565b91505092915050565b5f81519050919050565b5f82825260208201905092915050565b5f5b8381101561044657808201518184015260208101905061042b565b5f8484015250505050565b5f601f19601f8301169050919050565b5f61046b8261040f565b6104758185610419565b9350610485818560208601610429565b61048e81610451565b840191505092915050565b5f73ffffffffffffffffffffffffffffffffffffffff82169050919050565b5f6104c282610499565b9050919050565b6104d2816104b8565b82525050565b5f6040820190508181035f8301526104f08185610461565b90506104ff60208301846104c9565b9392505050565b5f80fd5b5f80fd5b7f4e487b71000000000000000000000000000000000000000000000000000000005f52604160045260245ffd5b61054482610451565b810181811067ffffffffffffffff821117156105635761056261050e565b5b80604052505050565b5f6105756103a0565b9050610581828261053b565b919050565b5f67ffffffffffffffff8211156105a05761059f61050e565b5b6105a982610451565b9050602081019050919050565b828183375f83830152505050565b5f6105d66105d184610586565b61056c565b9050828152602081018484840111156105f2576105f161050a565b5b6105fd8482856105b6565b509392505050565b5f82601f83011261061957610618610506565b5b81356106298482602086016105c4565b91505092915050565b5f60208284031215610647576106466103a9565b5b5f82013567ffffffffffffffff811115610664576106636103ad565b5b61067084828501610605565b91505092915050565b610682816103b1565b82525050565b5f60208201905061069b5f830184610679565b92915050565b7f4e487b71000000000000000000000000000000000000000000000000000000005f52603260045260245ffd5b7f4e487b71000000000000000000000000000000000000000000000000000000005f52602260045260245ffd5b5f600282049050600182168061071257607f821691505b602082108103610725576107246106ce565b5b50919050565b5f819050815f5260205f209050919050565b5f6020601f8301049050919050565b5f82821b905092915050565b5f600883026107877fffffffffffffffffffffffffffffffffffffffffffffffffffffffffffffffff8261074c565b610791868361074c565b95508019841693508086168417925050509392505050565b5f819050919050565b5f6107cc6107c76107c2846103b1565b6107a9565b6103b1565b9050919050565b5f819050919050565b6107e5836107b2565b6107f96107f1826107d3565b848454610758565b825550505050565b5f90565b61080d610801565b6108188184846107dc565b505050565b5b8181101561083b576108305f82610805565b60018101905061081e565b5050565b601f821115610880576108518161072b565b61085a8461073d565b81016020851015610869578190505b61087d6108758561073d565b83018261081d565b50505b505050565b5f82821c905092915050565b5f6108a05f1984600802610885565b1980831691505092915050565b5f6108b88383610891565b9150826002028217905092915050565b6108d18261040f565b67ffffffffffffffff8111156108ea576108e961050e565b5b6108f482546106fb565b6108ff82828561083f565b5f60209050601f831160018114610930575f841561091e578287015190505b61092885826108ad565b86555061098f565b601f19841661093e8661072b565b5f5b8281101561096557848901518255600182019150602085019450602081019050610940565b86831015610982578489015161097e601f891682610891565b8355505b6001600288020188555050505b50505050505056fea264697066735822122099af76e06956da5bc928e886cfdb3293d4fef34c1375053de14358180537780e64736f6c63430008150033",
  "immutableReferences": {},
  "source": "// SPDX-License-Identifier: MIT\npragma solidity >=0.4.22 <0.9.0;\n\ncontract Comments {\n  struct Comment {\n    string text;\n    address author;\n  }\n\n  Comment[] public comments;\n\n  function addComment(string memory _text) public {\n    comments.push(Comment(_text, msg.sender));\n  }\n\n  function getComment(uint _index) public view returns (string memory, address) {\n    Comment memory comment = comments[_index];\n    return (comment.text, comment.author);\n  }\n\n  function getCommentsCount() public view returns (uint) {\n    return comments.length;\n  }\n}\n",
  "sourcePath": "/Users/jansvensson/Develop/Web/portfolio-cms/portfolio-comment-section/contracts/Comments.sol",
  "compiler": {
    "name": "solc",
    "version": "0.8.21+commit.d9974bed.Emscripten.clang"
  },
  "schemaVersion": "3.4.16",
  "updatedAt": "2024-06-06T21:24:29.212Z",
  "networkType": "ethereum",
  "devdoc": {
    "kind": "dev",
    "methods": {},
    "version": 1
  },
  "userdoc": {
    "kind": "user",
    "methods": {},
    "version": 1
  }
}